:100000000C94F3020C941B030C941B030C941B0321
:100010000C941B030C941B030C941B030C941B03E8
:100020000C941B030C941B030C941B030C941B03D8
:100030000C941B030C941B030C941B030C941B03C8
:100040000C9463090C941B030C94D3090C94AD0914
:100050000C941B030C941B030C941B030C941B03A8
:100060000C941B030C941B034602000000FF0800C5
:10007000053E5B4F5B3E053E6B4F6B3E051C3E7C79
:100080003E1C05183C7E3C18051C577D571C051C62
:100090005E7F5E1C0400183C1805FFE7C3E7FF0401
:1000A0000018241805FFE7DBE7FF0530483A060E85
:1000B00005262979292605407F05050705407F0586
:1000C000253F055A3CE73C5A057F3E1C1C080508A5
:1000D0001C1C3E7F0514227F221405FFFFFFFFFF3B
:1000E00005F0F0F0F0F003FFFFFF05000000FFFF58
:1000F000050F0F0F0F0F0508047E04080510207E62
:1001000020100508082A1C0805081C2A080805AA4A
:10011000005500AA05AA55AA55AA0530383E383020
:1001200005060E3E0E06020000015F0307000705EC
:10013000147F147F1405444AFF4A32056313086490
:10014000630536494936480107033E4141034141B1
:100150003E05082A1C2A080508083E08080260E037
:100160000408080808026060056010080403053EE2
:100170005149453E0304027F0571494949460541FD
:1001800049494936050F0808087F054F4949493153
:10019000053E4949493005030101017F05364949BA
:1001A000493605064949493E026C6C026CEC03086D
:1001B0001422041414141403221408050159090903
:1001C00006053E415D594E057E0909097E057F49B8
:1001D000494936053E41414141057F4141413E0586
:1001E0007F49494941057F09090901053E414149C6
:1001F00079057F0808087F03417F4105304141416F
:100200003F057F08142241057F40404040057F02A2
:100210000C027F057F0408107F053E4141413E05E9
:100220007F09090906053E4141617E057F091929BB
:10023000460546494949310501017F0101053F4015
:1002400040403F051F2040201F053F4038403F05EC
:1002500063140814630503047804030561514945D8
:1002600043037F41410503040810600341417F05BA
:100270000402010204048080808003010204043827
:1002800044447C047F44443804384444440438449F
:10029000447F043854545804047E05010418A4A46F
:1002A0007C047F040478017D0384857C047F10280E
:1002B00044017F057C04780478047C0404780438C5
:1002C00044443804FC24241804182424FC047C042A
:1002D0000408045854543403047F04043C40407C14
:1002E000041C20407C053C4030403C046C10106CE9
:1002F000041CA0A07C046454544C04083641410101
:100300007F04414136080402010201057F41414159
:100310007F053E55555541053844443844057C2AEF
:100320002A3E14057E0202060605027E027E0205B2
:100330006355494163053844443C0405407E201E12
:10034000200506027E0202086313086463006060F1
:10035000052A2A2A2A2A03514A4403444A510500FD
:1003600000FF010303E080FF053612362436030246
:100370000502021818021010053040FF0101041F89
:1003800001011E000000000901017F017F020C0233
:100390007F0000000000000100017D0418247E247D
:1003A00004447E454105221C141C2205012A7C2A96
:1003B000010177044E55553903020002077E81BDC5
:1003C000A5A5817E0326292F0508142A14220408D6
:1003D00008081803080808077E81BD95A9817E05D5
:1003E00001010101010302050203242E2403191552
:1003F000120315150A02020104F8204078050609C7
:100400007F017F021818040080A0C003121F100390
:100410002629260522142A140808402F1008041E35
:10042000117C08402F10080462554C0915553F10E7
:1004300008041E117C053048484D400578151614F7
:1004400078057814161578057A1514157A05781636
:10045000151679057815141578057814151478078C
:100460007E09097F494941059EA1612121057C54EE
:10047000554644057C54564544057E55544546052D
:100480007C5554454403457E4403447E4503467DE4
:100490004603457C4505087F49413E057C0A1122FB
:1004A0007D053844454638053844464538053A45C3
:1004B00044453A05384645463905384544453805EA
:1004C0002214081422057C625A463E053C404142F3
:1004D0003C053C4042413C053C4241423C053C41DC
:1004E00040413C0502047A0502043F12120C057ECD
:1004F00049494E30043845467C043844467D04382A
:1005000046457E043A45467D043845447D04304ADC
:100510004D7A0720545438545458049CA262220443
:10052000385556580438545659043856555A0438D4
:1005300055545902017A027A0103027902030278C2
:100540000204304B4B3C047A090A710430494A30AA
:100550000430484A3104304A49320432494A3104AD
:10056000394444390508082A08080438544C38042A
:10057000384142780438404279043842417A043A9A
:1005800040407A0418A0A27904FC282810041AA07C
:10059000A07A000000080002010000030407000028
:1005A00000000000000000000000250028002B00D3
:1005B00000000000240027002A00040404040404AE
:1005C0000404020202020202030303030303010202
:1005D00004081020408001020408102001020408D1
:1005E0001020050A4A0C11241FBECFEFD8E0DEBF51
:1005F000CDBF11E0A0E0B1E0E8E5FBE102C005906D
:100600000D92A632B107D9F721E0A6E2B1E001C010
:100610001D92A53FB207E1F712E0C2EFD2E004C09D
:100620002197FE010E946D0CC13FD107C9F70E94BE
:10063000490A0C949F0D0C94000090E0FC01E253D9
:10064000FA4F249186549A4FFC018491882399F0A3
:1006500090E0880F991FFC01E055FA4FA591B491E5
:10066000FC01EA55FA4F859194918FB7F894EC917B
:10067000E22BEC938FBF0895FC01538D448D252F01
:1006800030E0842F90E0821B930B541710F0CF962C
:10069000089501970895FC01918D828D981761F05E
:1006A000A28DAE0FBF2FB11D5D968C91928D9F5F75
:1006B0009F73928F90E008958FEF9FEF0895FC0154
:1006C000918D828D981731F0828DE80FF11D858D07
:1006D00090E008958FEF9FEF0895FC01918D228D9A
:1006E000892F90E0805C9F4F821B91098F7399271F
:1006F0000895FC01A48DA80FB92FB11DA35ABF4FB7
:100700002C91848D90E001968F739927848FA68910
:10071000B7892C93A089B1898C91837080648C9364
:10072000938D848D981306C00288F389E02D808113
:100730008F7D80830895EF92FF920F931F93CF9345
:10074000DF93EC0181E0888F9B8D8C8D98131AC00C
:10075000E889F989808185FF15C09FB7F894EE89F3
:10076000FF896083E889F989808183708064808350
:100770009FBF81E090E0DF91CF911F910F91FF909B
:10078000EF900895F62E0B8D10E00F5F1F4F0F7343
:100790001127E02E8C8D8E110CC00FB607FCFACFFE
:1007A000E889F989808185FFF5CFCE010E94790320
:1007B000F1CFEB8DEC0FFD2FF11DE35AFF4FF082CF
:1007C0009FB7F8940B8FEA89FB8980818062CFCF35
:1007D000CF93DF93EC01888D8823B9F0AA89BB8978
:1007E000E889F9898C9185FD03C0808186FD0DC063
:1007F0000FB607FCF7CF8C9185FFF2CF808185FF84
:10080000EDCFCE010E947903E9CFDF91CF9108951A
:1008100082E391E00E946D0321E0892B09F420E03E
:10082000822F089580E090E0892B29F00E9408042F
:1008300081110C940000089590E0FC01EE56FA4FEF
:100840002491FC01E253FA4F3491FC01E654FA4F33
:10085000E491EE23C9F0222339F0233001F1A8F40A
:10086000213019F1223029F1F0E0EE0FFF1FEA5597
:10087000FA4FA591B4918FB7F894EC91611126C00D
:1008800030953E233C938FBF08952730A9F0283040
:10089000C9F0243049F7809180008F7D03C080919A
:1008A00080008F7780938000DFCF84B58F7784BD01
:1008B000DBCF84B58F7DFBCF8091B0008F778093A5
:1008C000B000D2CF8091B0008F7DF9CF3E2BDACF30
:1008D0003FB7F89480912C0190912D01A0912E01A9
:1008E000B0912F0126B5A89B05C02F3F19F00196A6
:1008F000A11DB11D3FBFBA2FA92F982F8827BC017A
:10090000CD01620F711D811D911D42E0660F771FA1
:10091000881F991F4A95D1F708958F929F92AF92A1
:10092000BF92CF92DF92EF92FF924B015C010E9447
:1009300068046B017C010E9468046C197D098E09B2
:100940009F09683E734081059105A8F321E0821A52
:100950009108A108B10888EEC80E83E0D81EE11CFA
:10096000F11C81149104A104B10429F7FF90EF90C8
:10097000DF90CF90BF90AF909F908F900895AF92EF
:10098000BF92CF92DF92EF92FF920F931F93CF937C
:10099000DF936C017B018B01040F151FEB015E01DE
:1009A000AE18BF08C017D10759F06991D601ED9173
:1009B000FC910190F081E02DC6010995892B79F712
:1009C000C501DF91CF911F910F91FF90EF90DF90C4
:1009D000CF90BF90AF900895EF92FF920F931F9327
:1009E000CF93DF938091D8018823A1F080913101CA
:1009F000882361F08FB7F89490913101913071F5AF
:100A00009DB3909330019DB39DBB8FBF80E58CBD9E
:100A100081E08DBD60E08091D7010E941C0480912F
:100A2000D8018823F1F030E020E08091DB0190E0F4
:100A3000880F991F2817390708F03DC0E091DE01A3
:100A4000F091DF01E20FF31F80818EBD00000DB435
:100A500007FEFDCF8EB52F5F3F4FE7CF809330016C
:100A6000D5CFD0E0C0E08091DB0190E0880F991FE6
:100A7000C817D90700F5E091DE01F091DF01EC0F16
:100A8000FD1F0081F090D601E090D50118E0602FA5
:100A9000661F6627661F8E2D0E941C04000F61E0F2
:100AA0008F2D0E941C0460E08F2D0E941C041150A9
:100AB00071F72196D8CF61E08091D7010E941C0484
:100AC0008091D801882371F080913101882351F001
:100AD0009FB7F8942091310180913001213049F481
:100AE0008DBB9FBFDF91CF911F910F91FF90EF9032
:100AF00008958FBFF7CFE0EDF1E0438550E0440F5C
:100B0000551F70E060E0868597850C94980DEF92F4
:100B1000FF920F931F93CF93DF93FF24F394D0E0C2
:100B2000C0E001E010E0B9E0EB2E0E947B059801E7
:100B30000C2E02C0220F331F0A94E2F7E0E090E08F
:100B40008091DB01E817E0F5EE9DB0011124A09142
:100B5000DC01B091DD01A60FB71F18964C9150E053
:100B600042235323452B51F14E2F50E08150990BD6
:100B7000841B950B880F991FA091DE01B091DF01B6
:100B8000A80FB91FFC92A091DC01B091DD01A60F66
:100B9000B71FAC0FBD1F6C918091DB018150990B89
:100BA000841B950B880F991F4091DE015091DF0146
:100BB000840F951FDC0111966C9391E0EF5FC0CF1D
:100BC00091110E94EC042196F394C830D10509F0EC
:100BD000ACCF80E099E02091DB01821758F4E091DE
:100BE000DC01F091DD01899FE00DF11D11241086DB
:100BF0008F5FF1CFDF91CF911F910F91FF90EF9019
:100C00000895FF920F931F93CF93DF938A3091053E
:100C100009F465C0EB018C01F090DB010E947B05BB
:100C200040E0EC2F5FEF5F0D0230110509F44EC07C
:100C300088F401151105D9F00130110509F43FC000
:100C40004F5F541788F7DF91CF911F910F91FF905D
:100C50000C94EC0403301105E1F10430110581F727
:100C600091E0209709F490E0919589E005C091E02A
:100C7000209709F090E08CE0642F70E02091DB0178
:100C80002150330B261B370B220F331FA091DE019F
:100C9000B091DF01A20FB31F8C932091DB01215093
:100CA000330B261B370B220F331F6091DE0170912F
:100CB000DF01260F371FD90111969C93C1CF9C2FBE
:100CC000C830D1050CF097E08BE0D6CF9E2F8AE09C
:100CD000D3CF91E0209709F490E08FE0CDCF81E071
:100CE0006130710509F080E08093E40161307105A5
:100CF00039F4DF91CF911F910F91FF900C948705EC
:100D0000DF91CF911F910F91FF900895DF92EF92A5
:100D1000FF920F931F93CF93DF9399E0899F8001F8
:100D20001124F12CE12CC82FD0E0DD24D394DE0C6B
:100D3000E091DC01F091DD01E00FF11F808590E092
:100D40000E2C02C0959587950A94E2F780FF2DC07E
:100D50000E947B058091DB018150990B8C1B9D0BC0
:100D6000880F991F2091DE013091DF01820F931FC0
:100D7000FC01D082E091DC01F091DD01E00FF11F78
:100D8000EE0DFF1D40812091DB012150330B2C1B08
:100D90003D0B220F331F8091DE019091DF01280F60
:100DA000391FF90141830E94EC04FFEFEF1AFF0A9B
:100DB00088E0E816F10409F0B8CF8091DC01909149
:100DC000DD01080F191FF8011086DF91CF911F91E7
:100DD0000F91FF90EF90DF9008950F931F93CF93A3
:100DE000DF93382FDB018091DB01C0E0882309F419
:100DF00059C0E091DC01F091DD018091D401C32F55
:100E0000D0E09091D2012091D301992309F452C0EE
:100E1000882309F44DC087E090E08C1B9D0BE80F00
:100E2000F91F808107E010E00A1B1B0B211151C044
:100E300041E050E060E070E00A2E04C0440F551F0E
:100E4000661F771F0A94D2F7482B4083E091DC019C
:100E5000F091DD0120858091D4019091D2019923F8
:100E600009F45EC0882309F44FC047E050E04C1BF2
:100E70005D0B81E090E0A0E0B0E004C0880F991F16
:100E8000AA1FBB1F4A95D2F7822B8087C091E4012D
:100E9000CC2309F465C08091DB01882319F080E040
:100EA0000E9486068C2FDF91CF911F910F9108959C
:100EB000CE01B5CF8823C9F087E090E0861B970B61
:100EC000E80FF91F8081222391F007E010E00C1B4E
:100ED0001D0B41E050E060E070E004C0440F551F7E
:100EE000661F771F0A95D2F7AFCFCB01E9CF41E05C
:100EF00050E060E070E0032E04C0440F551F661FF1
:100F0000771F0A94D2F7A0CF81E090E0A0E0B0E094
:100F100004C0880F991FAA1FBB1F3A95D2F7B4CF00
:100F2000882391F087E090E08A1B9B0B41E050E022
:100F300060E070E004C0440F551F661F771F8A955C
:100F4000D2F7422B4087A2CF41E050E060E070E052
:100F500004C0440F551F661F771FAA95D2F7F1CF23
:100F6000C1E0A0CFCF93962F2091DB01C0E0821784
:100F700008F059C02091D3012223C1F0429550E0DE
:100F80009A0135952795359527952373440F551F5D
:100F9000440F551F4C7C422B242F30E0A90155955E
:100FA00047954575220F331F2A7A422B29E0829FED
:100FB000F0011124A091DC01B091DD01AE0FBF1F43
:100FC000692F70E02091D401222381F127E030E0E5
:100FD000261B370BA20FB31F4C932091DC013091DD
:100FE000DD01E20FF31F20853091D401332301F19D
:100FF000A7E0B0E0A61BB70B41E050E060E070E076
:1010000004C0440F551F661F771FAA95D2F7422BC5
:101010004087C091E401CC23B9F09091DB0189179E
:1010200010F40E9486068C2FCF9108959B01D2CF99
:1010300041E050E060E070E004C0440F551F661FBF
:10104000771F9A95D2F7E3CFC1E0EDCF8F929F92B1
:10105000AF92BF92CF92DF92EF92FF920F931F93C6
:10106000CF93DF939091DB0110E0891708F060C007
:1010700099E0899FD001112401E010E020E030E0E8
:1010800048015901062E04C0880C991CAA1CBB1CDF
:101090000A94D2F7F82C982D9095E7E0F0E0E61B43
:1010A000F10904C0000F111F221F331FEA95D2F768
:1010B000E02E009530E020E050E0C7E0D0E0B9013C
:1010C000E091DC01F091DD01EA0FFB1FB090D4014B
:1010D0001091D3016A01022E02C0D594C7940A94DC
:1010E000E2F7C0FE33C0BB2019F0BE01621B730BD8
:1010F000E60FF71F70816F2D11116E2D762B708307
:101100002F5F3F4F28303105D1F62091DC0130911F
:10111000DD01A20FB31F9FEF18969C931091E4017D
:10112000112311F19091DB01891710F40E948606BA
:10113000812FDF91CF911F910F91FF90EF90DF9062
:10114000CF90BF90AF909F908F900895BB2019F0E3
:10115000BE01621B730BE60FF71F6081792F11111F
:10116000702F67236083CCCF11E0E2CF9091D20142
:1011700091110C94B2070C9426089F92AF92BF92E3
:10118000CF92DF92EF92FF920F931F93CF93DF9353
:10119000D091E4014091EF015091F00170E060E0E6
:1011A0002091EB013091EC018217930708F464C0A1
:1011B000E091ED01F091EE01E817F90708F45CC049
:1011C000A091E601B091E701FD01E40FF51F821740
:1011D000930761F0E4914E0F511D611D711D4F5F2A
:1011E0005F4F6F4F7F4F2F5F3F4FEECFC4916A012C
:1011F0007B018FEFC81AD80AE80AF80A1092E401B6
:1012000007E010E0912CAC2EB12C492D092C000CDC
:10121000550B4A155B05F4F44C0D5D1DE091E6019C
:10122000F091E701E40FF51F4491602F6770C8014A
:1012300023E0969587952A95E1F72091D201222304
:1012400031F00E942608939401501109DECF0E94CC
:10125000B207F9CFD093E401D1110E9487058C2FFA
:10126000DF91CF911F910F91FF90EF90DF90CF9082
:10127000BF90AF909F900895C0E0F1CF9091DB01B7
:10128000915080E069E058E04FEF869F9001112473
:10129000A091DC01B091DD01A20FB31FFD01752FFC
:1012A00011927A95E9F7E091DC01F091DD01E20F0E
:1012B000F31F40878F5F981740F78091E4018111F9
:1012C0000C94870508951F920F920FB60F92112468
:1012D0002F933F938F939F93AF93BF938091280158
:1012E00090912901A0912A01B0912B013091270101
:1012F00023E0230F2D3758F50196A11DB11D209332
:1013000027018093280190932901A0932A01B0938B
:101310002B0180912C0190912D01A0912E01B09173
:101320002F010196A11DB11D80932C0190932D01D9
:10133000A0932E01B0932F01BF91AF919F918F91F8
:101340003F912F910F900FBE0F901F90189526E898
:10135000230F0296A11DB11DD2CF1F920F920FB67F
:101360000F9211242F933F934F935F936F937F932B
:101370008F939F93AF93BF93EF93FF9382E391E09B
:101380000E947903FF91EF91BF91AF919F918F914F
:101390007F916F915F914F913F912F910F900FBE71
:1013A0000F901F9018951F920F920FB60F92112455
:1013B0002F938F939F93EF93FF93E0914201F091CE
:1013C00043018081E0914801F091490182FD1BC0F9
:1013D000908180914B018F5F8F7320914C01821718
:1013E00041F0E0914B01F0E0EE5CFE4F958F809371
:1013F0004B01FF91EF919F918F912F910F900FBE15
:101400000F901F9018958081F4CFE2E3F1E01382F2
:10141000128288EE93E0A0E0B0E084839583A683F7
:10142000B78382E191E09183808385EC90E095879A
:10143000848784EC90E09787868780EC90E0918B9E
:10144000808B81EC90E0938B828B82EC90E0958B8B
:10145000848B86EC90E0978B868B118E128E138E88
:10146000148EE0EDF1E08DE085838BE086838CE0E7
:10147000878310868FEC91E09287818781E0838754
:10148000848B25E030E031832083128213828483B1
:101490000895789484B5826084BD84B5816084BDEC
:1014A00085B5826085BD85B5816085BD80916E0002
:1014B000816080936E001092810080918100826033
:1014C0008093810080918100816080938100809170
:1014D00080008160809380008091B100846080935F
:1014E000B1008091B00081608093B00080917A005B
:1014F000846080937A0080917A00826080937A0081
:1015000080917A00816080937A0080917A0080686F
:1015100080937A001092C1008091D801882309F449
:10152000C0C0CFB7F89480912601811124C0E4ECAB
:10153000F5E08491E8EDF5E09491E82FF0E0EE0F0E
:10154000FF1FE055FA4FA591B491EC91E92321F4E6
:1015500061E08AE00E941C048AE00E941D038CB5B1
:1015600080618CBD8CB580648CBD8DE00E941D03B4
:101570008BE00E941D03809126018F5F80932601DE
:10158000CFBF8091D7010E941D0361E08091D701F8
:101590000E941C041092E1011092E0011092E301FC
:1015A0001092E2018091E6019091E7018856904007
:1015B00009F49AC0E8E6F0E0F093E701E093E60171
:1015C0001092E80188E08093E9011092EC011092FA
:1015D000EB018FEF90E09093EE018093ED0110927C
:1015E000F0011092EF01E491E63409F033C0E9E62E
:1015F000F0E0E491E13009F45DC082E090E0E23097
:1016000029F5EAE6F0E08491EBE6F0E0E49190E081
:10161000982F88278E0F911D9093EC018093EB01FA
:10162000ECE6F0E08491EDE6F0E0E49190E0982FB4
:1016300088278E0F911D9093EE018093ED01EEE6C9
:10164000F0E0E491E093E90187E090E09093F0010D
:101650008093EF01C090EF01D090F001F12CE12CCC
:101660002091EB013091EC014091ED015091EE01A0
:1016700060E04217530708F435C0F601E859FF4F00
:101680008491681708F4682F90E0B0E0A0E001961C
:10169000A11DB11DC80ED91EEA1EFB1E2F5F3F4FB4
:1016A000E8CF8091D5010E941D038091D6010E9450
:1016B0001D0367CFEAE6F0E0E491F0E0F093EC017F
:1016C000E093EB01EBE6F0E0E491F0E0F093EE0163
:1016D000E093ED01ECE6F0E0E491E093E90185E0D0
:1016E00090E0B4CF6093EA01C091DB01E9E0CE9FC6
:1016F000C00111240E94730C8C019093DD01809332
:10170000DC018C2F90E0880F991F0E94730C90933E
:10171000DF018093DE01892B11F1012B01F170E0D3
:1017200060E083E090E00E94010667E070E081E005
:1017300090E00E94010667E070E082E090E00E9485
:10174000010670E060E084E090E00E9401060E94E3
:101750003E0970E060E090E080E00E9401066FE0EA
:1017600070E082E090E00E94010661E070E08AE0B3
:1017700090E00E94010663E070E083E00E94ED06C5
:1017800068EE73E080E090E00E948D040E943E09C4
:1017900010E0C7E0D0E0BE01812F0E94ED06BE013F
:1017A0008C2F0E94ED0660E971E080E090E00E94DD
:1017B0008D0421971F5F183071F70E943E098091B8
:1017C000D2014FE161E0882309F460C080E00E940B
:1017D0002608D091DB01D1501091E4011092E40170
:1017E000C0E04FE162E08C2F0E94B608CF5FDC17AB
:1017F000C0F71093E40111110E94870568EE73E0B1
:1018000080E090E00E948D040E943E09C1E4D0E097
:10181000CE010E94BD0864EF71E080E090E00E947C
:101820008D042196CB35D10599F7C1E6D0E0CE01E4
:101830000E94BD0864EF71E080E090E00E948D049A
:101840002196CB37D10599F70E943E0906E011E0B9
:10185000C0E0F80141918F016C2F80E00E94B60832
:10186000CF5FC830B1F745E050E060E271E082E35D
:1018700091E00E94BF04C0E0D0E02097F1F30E9405
:1018800008048823D1F30E940000F7CF80E00E9473
:10189000B2079FCF8091D801882399F09FB7F89421
:1018A00080912601882319F0815080932601809130
:1018B0002601811105C08CB58F7B8CBD1092310142
:1018C0009FBF8091DC019091DD010E940F0D8091FE
:1018D000DE019091DF010C940F0DEE0FFF1F0590BC
:1018E000F491E02D09940F931F93CF93DF938230EF
:1018F000910510F482E090E0E091F301F091F401A1
:1019000030E020E0B0E0A0E0309799F421153105F7
:1019100009F44AC0281B390B24303105D8F58A81D7
:101920009B816115710589F1FB0193838283FE011F
:1019300011C0408151810281138148175907E0F09D
:101940004817590799F4109761F012960C93129763
:1019500013961C933296CF01DF91CF911F910F9177
:1019600008950093F3011093F401F4CF211531058C
:1019700051F04217530738F0A901DB019A01BD016C
:10198000DF01F801C1CFEF01F9CF9093F40180930B
:10199000F301CDCFFE01E20FF31F8193919322500B
:1019A000310939832883D7CF2091F1013091F20199
:1019B000232B41F420910201309103013093F20175
:1019C0002093F10120910001309101012115310591
:1019D00041F42DB73EB74091040150910501241BFD
:1019E000350BE091F101F091F201E217F307A0F459
:1019F0002E1B3F0B2817390778F0AC014E5F5F4F65
:101A00002417350748F04E0F5F1F5093F2014093A3
:101A1000F101819391939FCFF0E0E0E09CCFCF93D1
:101A2000DF930097E9F0FC01329713821282A091B4
:101A3000F301B091F401ED0130E020E01097A1F442
:101A400020813181820F931F2091F1013091F201A9
:101A50002817390709F061C0F093F201E093F10112
:101A6000DF91CF910895EA01CE17DF07E8F54A81AB
:101A70005B819E0141155105B1F7E901FB83EA83C2
:101A800049915991C40FD51FEC17FD0761F480816E
:101A900091810296840F951FE90199838883828141
:101AA00093819B838A83F0E0E0E012968D919C9174
:101AB00013970097B9F52D913C911197CD0102969E
:101AC000820F931F2091F1013091F20128173907FD
:101AD00039F6309751F51092F4011092F301B0935A
:101AE000F201A093F101BCCFD383C2834081518125
:101AF000840F951FC817D90761F44E5F5F4F888127
:101B00009981480F591F518340838A819B81938318
:101B100082832115310509F0B0CFF093F401E093F1
:101B2000F3019ECFFD01DC01C0CF13821282D7CF1B
:101B3000DC0101C06D9341505040E0F7089512E080
:101B4000C2EFD2E004C0FE010E946D0C2196C33F9B
:081B5000D107C9F7F894FFCF9B
:101B58000000F5018000186642A5815A241800008B
:101B680000009B03BF043C03E8036D034B035F03C2
:061B78006C6973746F003C
:00000001FF
